{
  "contractName": "TaskManager",
  "abi": [
    {
      "inputs": [],
      "stateMutability": "nonpayable",
      "type": "constructor"
    },
    {
      "anonymous": false,
      "inputs": [
        {
          "indexed": false,
          "internalType": "uint256",
          "name": "taskId",
          "type": "uint256"
        },
        {
          "indexed": false,
          "internalType": "string",
          "name": "name",
          "type": "string"
        }
      ],
      "name": "TaskAdded",
      "type": "event"
    },
    {
      "anonymous": false,
      "inputs": [
        {
          "indexed": false,
          "internalType": "uint256",
          "name": "taskId",
          "type": "uint256"
        }
      ],
      "name": "TaskCompleted",
      "type": "event"
    },
    {
      "inputs": [],
      "name": "admin",
      "outputs": [
        {
          "internalType": "address",
          "name": "",
          "type": "address"
        }
      ],
      "stateMutability": "view",
      "type": "function"
    },
    {
      "inputs": [],
      "name": "taskCount",
      "outputs": [
        {
          "internalType": "uint256",
          "name": "",
          "type": "uint256"
        }
      ],
      "stateMutability": "view",
      "type": "function"
    },
    {
      "inputs": [
        {
          "internalType": "uint256",
          "name": "",
          "type": "uint256"
        }
      ],
      "name": "tasks",
      "outputs": [
        {
          "internalType": "string",
          "name": "name",
          "type": "string"
        },
        {
          "internalType": "bool",
          "name": "completed",
          "type": "bool"
        }
      ],
      "stateMutability": "view",
      "type": "function"
    },
    {
      "inputs": [
        {
          "internalType": "string",
          "name": "_name",
          "type": "string"
        }
      ],
      "name": "addTask",
      "outputs": [],
      "stateMutability": "nonpayable",
      "type": "function"
    },
    {
      "inputs": [
        {
          "internalType": "uint256",
          "name": "_taskId",
          "type": "uint256"
        }
      ],
      "name": "toggleTask",
      "outputs": [],
      "stateMutability": "nonpayable",
      "type": "function"
    }
  ],
  "bytecode": "0x6080604052348015600e575f80fd5b50335f806101000a81548173ffffffffffffffffffffffffffffffffffffffff021916908373ffffffffffffffffffffffffffffffffffffffff160217905550610c238061005b5f395ff3fe608060405234801561000f575f80fd5b5060043610610055575f3560e01c8063613137a41461005957806367238562146100755780638d97767214610091578063b6cb58a5146100c2578063f851a440146100e0575b5f80fd5b610073600480360381019061006e91906104b6565b6100fe565b005b61008f600480360381019061008a919061061d565b610255565b005b6100ab60048036038101906100a691906104b6565b610397565b6040516100b99291906106de565b60405180910390f35b6100ca610449565b6040516100d7919061071b565b60405180910390f35b6100e861044f565b6040516100f59190610773565b60405180910390f35b5f8054906101000a900473ffffffffffffffffffffffffffffffffffffffff1673ffffffffffffffffffffffffffffffffffffffff163373ffffffffffffffffffffffffffffffffffffffff161461018b576040517f08c379a0000000000000000000000000000000000000000000000000000000008152600401610182906107fc565b60405180910390fd5b60025481106101cf576040517f08c379a00000000000000000000000000000000000000000000000000000000081526004016101c690610864565b60405180910390fd5b60015f8281526020019081526020015f206001015f9054906101000a900460ff161560015f8381526020019081526020015f206001015f6101000a81548160ff0219169083151502179055507fc1fa7142cfb933d0855114a3bffde296944c30b727f297c14d0db4d553d3a5c78160405161024a919061071b565b60405180910390a150565b5f8054906101000a900473ffffffffffffffffffffffffffffffffffffffff1673ffffffffffffffffffffffffffffffffffffffff163373ffffffffffffffffffffffffffffffffffffffff16146102e2576040517f08c379a00000000000000000000000000000000000000000000000000000000081526004016102d9906107fc565b60405180910390fd5b60405180604001604052808281526020015f151581525060015f60025481526020019081526020015f205f820151815f01908161031f9190610a7c565b506020820151816001015f6101000a81548160ff0219169083151502179055509050507f2ee7ce8bac091b03a0c391c07ee88a246bdd72bdc6b1ef1ce4d99220595d32c560025482604051610375929190610b4b565b60405180910390a160025f81548092919061038f90610ba6565b919050555050565b6001602052805f5260405f205f91509050805f0180546103b6906108af565b80601f01602080910402602001604051908101604052809291908181526020018280546103e2906108af565b801561042d5780601f106104045761010080835404028352916020019161042d565b820191905f5260205f20905b81548152906001019060200180831161041057829003601f168201915b505050505090806001015f9054906101000a900460ff16905082565b60025481565b5f8054906101000a900473ffffffffffffffffffffffffffffffffffffffff1681565b5f604051905090565b5f80fd5b5f80fd5b5f819050919050565b61049581610483565b811461049f575f80fd5b50565b5f813590506104b08161048c565b92915050565b5f602082840312156104cb576104ca61047b565b5b5f6104d8848285016104a2565b91505092915050565b5f80fd5b5f80fd5b5f601f19601f8301169050919050565b7f4e487b71000000000000000000000000000000000000000000000000000000005f52604160045260245ffd5b61052f826104e9565b810181811067ffffffffffffffff8211171561054e5761054d6104f9565b5b80604052505050565b5f610560610472565b905061056c8282610526565b919050565b5f67ffffffffffffffff82111561058b5761058a6104f9565b5b610594826104e9565b9050602081019050919050565b828183375f83830152505050565b5f6105c16105bc84610571565b610557565b9050828152602081018484840111156105dd576105dc6104e5565b5b6105e88482856105a1565b509392505050565b5f82601f830112610604576106036104e1565b5b81356106148482602086016105af565b91505092915050565b5f602082840312156106325761063161047b565b5b5f82013567ffffffffffffffff81111561064f5761064e61047f565b5b61065b848285016105f0565b91505092915050565b5f81519050919050565b5f82825260208201905092915050565b8281835e5f83830152505050565b5f61069682610664565b6106a0818561066e565b93506106b081856020860161067e565b6106b9816104e9565b840191505092915050565b5f8115159050919050565b6106d8816106c4565b82525050565b5f6040820190508181035f8301526106f6818561068c565b905061070560208301846106cf565b9392505050565b61071581610483565b82525050565b5f60208201905061072e5f83018461070c565b92915050565b5f73ffffffffffffffffffffffffffffffffffffffff82169050919050565b5f61075d82610734565b9050919050565b61076d81610753565b82525050565b5f6020820190506107865f830184610764565b92915050565b7f4f6e6c792061646d696e2063616e2063616c6c20746869732066756e6374696f5f8201527f6e00000000000000000000000000000000000000000000000000000000000000602082015250565b5f6107e660218361066e565b91506107f18261078c565b604082019050919050565b5f6020820190508181035f830152610813816107da565b9050919050565b7f496e76616c6964207461736b20494400000000000000000000000000000000005f82015250565b5f61084e600f8361066e565b91506108598261081a565b602082019050919050565b5f6020820190508181035f83015261087b81610842565b9050919050565b7f4e487b71000000000000000000000000000000000000000000000000000000005f52602260045260245ffd5b5f60028204905060018216806108c657607f821691505b6020821081036108d9576108d8610882565b5b50919050565b5f819050815f5260205f209050919050565b5f6020601f8301049050919050565b5f82821b905092915050565b5f6008830261093b7fffffffffffffffffffffffffffffffffffffffffffffffffffffffffffffffff82610900565b6109458683610900565b95508019841693508086168417925050509392505050565b5f819050919050565b5f61098061097b61097684610483565b61095d565b610483565b9050919050565b5f819050919050565b61099983610966565b6109ad6109a582610987565b84845461090c565b825550505050565b5f90565b6109c16109b5565b6109cc818484610990565b505050565b5b818110156109ef576109e45f826109b9565b6001810190506109d2565b5050565b601f821115610a3457610a05816108df565b610a0e846108f1565b81016020851015610a1d578190505b610a31610a29856108f1565b8301826109d1565b50505b505050565b5f82821c905092915050565b5f610a545f1984600802610a39565b1980831691505092915050565b5f610a6c8383610a45565b9150826002028217905092915050565b610a8582610664565b67ffffffffffffffff811115610a9e57610a9d6104f9565b5b610aa882546108af565b610ab38282856109f3565b5f60209050601f831160018114610ae4575f8415610ad2578287015190505b610adc8582610a61565b865550610b43565b601f198416610af2866108df565b5f5b82811015610b1957848901518255600182019150602085019450602081019050610af4565b86831015610b365784890151610b32601f891682610a45565b8355505b6001600288020188555050505b505050505050565b5f604082019050610b5e5f83018561070c565b8181036020830152610b70818461068c565b90509392505050565b7f4e487b71000000000000000000000000000000000000000000000000000000005f52601160045260245ffd5b5f610bb082610483565b91507fffffffffffffffffffffffffffffffffffffffffffffffffffffffffffffffff8203610be257610be1610b79565b5b60018201905091905056fea2646970667358221220b555bc2065e17e55ea46818837b329d7988884f0e3a8df9b17e652afaebf0a7264736f6c63430008190033",
  "immutableReferences": {},
  "source": "// SPDX-License-Identifier: MIT\r\npragma solidity ^0.8.2; // Change the compiler version to match the required version\r\n\r\ncontract TaskManager {\r\n    address public admin;\r\n    mapping(uint256 => Task) public tasks;\r\n    uint256 public taskCount;\r\n\r\n    struct Task {\r\n        string name;\r\n        bool completed;\r\n    }\r\n\r\n    event TaskAdded(uint256 taskId, string name);\r\n    event TaskCompleted(uint256 taskId);\r\n\r\n    modifier onlyAdmin() {\r\n        require(msg.sender == admin, \"Only admin can call this function\");\r\n        _;\r\n    }\r\n\r\n    constructor() {\r\n        admin = msg.sender;\r\n    }\r\n\r\n    function addTask(string memory _name) public onlyAdmin {\r\n        tasks[taskCount] = Task(_name, false);\r\n        emit TaskAdded(taskCount, _name);\r\n        taskCount++;\r\n    }\r\n\r\n    function toggleTask(uint256 _taskId) public onlyAdmin {\r\n        require(_taskId < taskCount, \"Invalid task ID\");\r\n        tasks[_taskId].completed = !tasks[_taskId].completed;\r\n        emit TaskCompleted(_taskId);\r\n    }\r\n}\r\n",
  "sourcePath": "C:\\Users\\user\\Documents\\Tech\\Live Project\\C-X\\contracts\\c-x.sol",
  "compiler": {
    "name": "solc",
    "version": "0.8.25+commit.b61c2a91.Emscripten.clang"
  },
  "schemaVersion": "3.4.16",
  "updatedAt": "2024-04-16T14:14:36.508Z",
  "devdoc": {
    "kind": "dev",
    "methods": {},
    "version": 1
  },
  "userdoc": {
    "kind": "user",
    "methods": {},
    "version": 1
  }
}